:0C00F900040C08040201040801020408C1
:0900D00029F8E6F5807F047E00AA
:1000D900E4FDFCC3ED9FEC9E5015E4FBFA0BBB005D
:0F00E900010AEB64704A70F50DBD00010C80E454
:0100F80022E5
:0B010600E4F9740C1200D009B904F7F2
:0101110022CB
:0B011200E4F974081200D009B904F7EA
:01011D0022BF
:04011E00E4F5802262
:10008F007F327E001200D9900000120106A3E58294
:10009F00B4F4F7E583B401F212011E7FF47E01126E
:1000AF0000D9E4F583F582120112A3E582B4F4F7C7
:1000BF00E583B401F212011E7FF47E011200D98094
:0100CF00C66A
:03000000020003F8
:0C000300787FE4F6D8FD75810F02004AFA
:10000F0002008FE493A3F8E493A34003F68001F278
:10001F0008DFF48029E493A3F85407240CC8C333F2
:10002F00C4540F4420C8834004F456800146F6DFC1
:10003F00E4800B01020408102040809000F9E47E58
:10004F00019360BCA3FF543F30E509541FFEE493B6
:10005F00A360010ECF54C025E060A840B8E493A37D
:10006F00FAE493A3F8E493A3C8C582C8CAC583CAA8
:10007F00F0A3C8C582C8CAC583CADFE9DEE780BE60
:0101050000F9
:00000001FF
