:0C00F500040D08040201040901020408C3
:1000C000E4FDFCC3ED9FEC9E5015E4FBFA0BBB0076
:0F00D000010AEB64704A70F50DBD00010C80E46D
:0100DF0022FE
:1000E000E4F9740D29F8E6F580AF087E001200C02F
:0400F00009B904EE58
:0100F40022E9
:04010200E4F580227E
:10008F007F327E001200C07508199000001200E048
:10009F00A3E582640A458370F41508E508C3940448
:1000AF0050E87508191201027FF47E011200C0801A
:0100BF00D967
:03000000020003F8
:0C000300787FE4F6D8FD75811002004AF9
:10000F0002008FE493A3F8E493A34003F68001F278
:10001F0008DFF48029E493A3F85407240CC8C333F2
:10002F00C4540F4420C8834004F456800146F6DFC1
:10003F00E4800B01020408102040809000F5E47E5C
:10004F00019360BCA3FF543F30E509541FFEE493B6
:10005F00A360010ECF54C025E060A840B8E493A37D
:10006F00FAE493A3F8E493A3C8C582C8CAC583CAA8
:10007F00F0A3C8C582C8CAC583CADFE9DEE780BE60
:0101010000FD
:00000001FF
